{
  "contractName": "Evaluator",
  "abi": [
    {
      "inputs": [
        {
          "internalType": "contract ERC20TD",
          "name": "_TDAAVE",
          "type": "address"
        },
        {
          "internalType": "contract IERC20",
          "name": "_aDAI",
          "type": "address"
        },
        {
          "internalType": "contract IERC20",
          "name": "_USDC",
          "type": "address"
        },
        {
          "internalType": "contract IERC20",
          "name": "_variableDebtUSDC",
          "type": "address"
        }
      ],
      "stateMutability": "nonpayable",
      "type": "constructor"
    },
    {
      "anonymous": false,
      "inputs": [
        {
          "indexed": false,
          "internalType": "address",
          "name": "erc20Address",
          "type": "address"
        },
        {
          "indexed": false,
          "internalType": "address",
          "name": "adaiAddress",
          "type": "address"
        },
        {
          "indexed": false,
          "internalType": "address",
          "name": "UsdcAddress",
          "type": "address"
        },
        {
          "indexed": false,
          "internalType": "address",
          "name": "variableDebtUSDCAddress",
          "type": "address"
        }
      ],
      "name": "constructedCorrectly",
      "type": "event"
    },
    {
      "stateMutability": "payable",
      "type": "fallback",
      "payable": true
    },
    {
      "inputs": [],
      "name": "TDAAVE",
      "outputs": [
        {
          "internalType": "contract ERC20TD",
          "name": "",
          "type": "address"
        }
      ],
      "stateMutability": "view",
      "type": "function",
      "constant": true
    },
    {
      "inputs": [],
      "name": "USDC",
      "outputs": [
        {
          "internalType": "contract IERC20",
          "name": "",
          "type": "address"
        }
      ],
      "stateMutability": "view",
      "type": "function",
      "constant": true
    },
    {
      "inputs": [],
      "name": "aDAI",
      "outputs": [
        {
          "internalType": "contract IERC20",
          "name": "",
          "type": "address"
        }
      ],
      "stateMutability": "view",
      "type": "function",
      "constant": true
    },
    {
      "inputs": [
        {
          "internalType": "address",
          "name": "",
          "type": "address"
        },
        {
          "internalType": "uint256",
          "name": "",
          "type": "uint256"
        }
      ],
      "name": "exerciceProgression",
      "outputs": [
        {
          "internalType": "bool",
          "name": "",
          "type": "bool"
        }
      ],
      "stateMutability": "view",
      "type": "function",
      "constant": true
    },
    {
      "inputs": [
        {
          "internalType": "address",
          "name": "",
          "type": "address"
        }
      ],
      "name": "hasBeenPaired",
      "outputs": [
        {
          "internalType": "bool",
          "name": "",
          "type": "bool"
        }
      ],
      "stateMutability": "view",
      "type": "function",
      "constant": true
    },
    {
      "inputs": [
        {
          "internalType": "address",
          "name": "",
          "type": "address"
        }
      ],
      "name": "studentExercice",
      "outputs": [
        {
          "internalType": "contract IExerciceSolution",
          "name": "",
          "type": "address"
        }
      ],
      "stateMutability": "view",
      "type": "function",
      "constant": true
    },
    {
      "inputs": [],
      "name": "variableDebtUSDC",
      "outputs": [
        {
          "internalType": "contract IERC20",
          "name": "",
          "type": "address"
        }
      ],
      "stateMutability": "view",
      "type": "function",
      "constant": true
    },
    {
      "stateMutability": "payable",
      "type": "receive",
      "payable": true
    },
    {
      "inputs": [],
      "name": "ex1_showIDepositedTokens",
      "outputs": [],
      "stateMutability": "nonpayable",
      "type": "function"
    },
    {
      "inputs": [],
      "name": "ex2_showIBorrowedTokens",
      "outputs": [],
      "stateMutability": "nonpayable",
      "type": "function"
    },
    {
      "inputs": [],
      "name": "ex3_showIRepaidTokens",
      "outputs": [],
      "stateMutability": "nonpayable",
      "type": "function"
    },
    {
      "inputs": [],
      "name": "ex4_showIWithdrewTokens",
      "outputs": [],
      "stateMutability": "nonpayable",
      "type": "function"
    },
    {
      "inputs": [],
      "name": "ex5_showContractCanDepositTokens",
      "outputs": [],
      "stateMutability": "nonpayable",
      "type": "function"
    },
    {
      "inputs": [],
      "name": "ex6_showContractCanBorrowTokens",
      "outputs": [],
      "stateMutability": "nonpayable",
      "type": "function"
    },
    {
      "inputs": [],
      "name": "ex7_showContractCanRepayTokens",
      "outputs": [],
      "stateMutability": "nonpayable",
      "type": "function"
    },
    {
      "inputs": [],
      "name": "ex8_showContractCanWithdrawTokens",
      "outputs": [],
      "stateMutability": "nonpayable",
      "type": "function"
    },
    {
      "inputs": [],
      "name": "ex9_performFlashLoan",
      "outputs": [],
      "stateMutability": "nonpayable",
      "type": "function"
    },
    {
      "inputs": [
        {
          "internalType": "contract IExerciceSolution",
          "name": "studentExercice_",
          "type": "address"
        }
      ],
      "name": "submitExercice",
      "outputs": [],
      "stateMutability": "nonpayable",
      "type": "function"
    }
  ],
  "bytecode": "0x60806040523480156200001157600080fd5b50604051620031bc380380620031bc833981810160405262000037919081019062000238565b836000806101000a81548173ffffffffffffffffffffffffffffffffffffffff021916908373ffffffffffffffffffffffffffffffffffffffff16021790555082600160006101000a81548173ffffffffffffffffffffffffffffffffffffffff021916908373ffffffffffffffffffffffffffffffffffffffff16021790555081600260006101000a81548173ffffffffffffffffffffffffffffffffffffffff021916908373ffffffffffffffffffffffffffffffffffffffff16021790555080600360006101000a81548173ffffffffffffffffffffffffffffffffffffffff021916908373ffffffffffffffffffffffffffffffffffffffff1602179055507f82169bf8e2a940653a3005b8fbe3a01d8ab56fd5bbbcd0bf31ac67b29cee1f976000809054906101000a900473ffffffffffffffffffffffffffffffffffffffff16600160009054906101000a900473ffffffffffffffffffffffffffffffffffffffff16600260009054906101000a900473ffffffffffffffffffffffffffffffffffffffff16600360009054906101000a900473ffffffffffffffffffffffffffffffffffffffff16604051620001f89493929190620002b5565b60405180910390a15050505062000392565b6000815190506200021b816200035e565b92915050565b600081519050620002328162000378565b92915050565b600080600080608085870312156200024f57600080fd5b60006200025f878288016200020a565b9450506020620002728782880162000221565b9350506040620002858782880162000221565b9250506060620002988782880162000221565b91505092959194509250565b620002af8162000302565b82525050565b6000608082019050620002cc6000830187620002a4565b620002db6020830186620002a4565b620002ea6040830185620002a4565b620002f96060830184620002a4565b95945050505050565b60006200030f826200033e565b9050919050565b6000620003238262000302565b9050919050565b6000620003378262000302565b9050919050565b600073ffffffffffffffffffffffffffffffffffffffff82169050919050565b620003698162000316565b81146200037557600080fd5b50565b62000383816200032a565b81146200038f57600080fd5b50565b612e1a80620003a26000396000f3fe6080604052600436106101025760003560e01c80635d5fff3111610095578063a3f6214211610064578063a3f62142146102b9578063bae3872e146102d0578063dc87d1e7146102e7578063e604cbc414610312578063f4fdbb881461032957610109565b80635d5fff31146102355780635f00f3221461024c578063689d82c01461026357806389a302711461028e57610109565b80632e45a7b1116100d15780632e45a7b1146101b35780632e64c500146101ca57806330af745f146102075780633abe5e1f1461021e57610109565b80630c58c95c1461010b5780631a38a4fb146101485780632236d35314610173578063289cf40c1461019c57610109565b3661010957005b005b34801561011757600080fd5b50610132600480360361012d91908101906125e1565b610366565b60405161013f9190612b33565b60405180910390f35b34801561015457600080fd5b5061015d610399565b60405161016a9190612b18565b60405180910390f35b34801561017f57600080fd5b5061019a60048036036101959190810190612646565b6103bf565b005b3480156101a857600080fd5b506101b16104ef565b005b3480156101bf57600080fd5b506101c861073b565b005b3480156101d657600080fd5b506101f160048036036101ec919081019061260a565b610a25565b6040516101fe9190612ae2565b60405180910390f35b34801561021357600080fd5b5061021c610a54565b005b34801561022a57600080fd5b50610233610ed2565b005b34801561024157600080fd5b5061024a61111e565b005b34801561025857600080fd5b50610261611498565b005b34801561026f57600080fd5b50610278611916565b6040516102859190612b18565b60405180910390f35b34801561029a57600080fd5b506102a361193c565b6040516102b09190612b18565b60405180910390f35b3480156102c557600080fd5b506102ce611962565b005b3480156102dc57600080fd5b506102e5611c4c565b005b3480156102f357600080fd5b506102fc6120ca565b6040516103099190612afd565b60405180910390f35b34801561031e57600080fd5b506103276120ef565b005b34801561033557600080fd5b50610350600480360361034b91908101906125e1565b61256d565b60405161035d9190612ae2565b60405180910390f35b60056020528060005260406000206000915054906101000a900473ffffffffffffffffffffffffffffffffffffffff1681565b600160009054906101000a900473ffffffffffffffffffffffffffffffffffffffff1681565b600660008273ffffffffffffffffffffffffffffffffffffffff1673ffffffffffffffffffffffffffffffffffffffff16815260200190815260200160002060009054906101000a900460ff161561041657600080fd5b80600560003373ffffffffffffffffffffffffffffffffffffffff1673ffffffffffffffffffffffffffffffffffffffff16815260200190815260200160002060006101000a81548173ffffffffffffffffffffffffffffffffffffffff021916908373ffffffffffffffffffffffffffffffffffffffff1602179055506001600660008373ffffffffffffffffffffffffffffffffffffffff1673ffffffffffffffffffffffffffffffffffffffff16815260200190815260200160002060006101000a81548160ff02191690831515021790555050565b6000600360009054906101000a900473ffffffffffffffffffffffffffffffffffffffff1673ffffffffffffffffffffffffffffffffffffffff166370a08231336040518263ffffffff1660e01b815260040161054c9190612a75565b60206040518083038186803b15801561056457600080fd5b505afa158015610578573d6000803e3d6000fd5b505050506040513d601f19601f8201168201806040525061059c919081019061266f565b116105dc576040517f08c379a00000000000000000000000000000000000000000000000000000000081526004016105d390612c2e565b60405180910390fd5b600460003373ffffffffffffffffffffffffffffffffffffffff1673ffffffffffffffffffffffffffffffffffffffff16815260200190815260200160002060006002815260200190815260200160002060009054906101000a900460ff16610739576001600460003373ffffffffffffffffffffffffffffffffffffffff1673ffffffffffffffffffffffffffffffffffffffff16815260200190815260200160002060006002815260200190815260200160002060006101000a81548160ff0219169083151502179055506000809054906101000a900473ffffffffffffffffffffffffffffffffffffffff1673ffffffffffffffffffffffffffffffffffffffff1663158a49883360026040518363ffffffff1660e01b8152600401610706929190612a90565b600060405180830381600087803b15801561072057600080fd5b505af1158015610734573d6000803e3d6000fd5b505050505b565b600460003373ffffffffffffffffffffffffffffffffffffffff1673ffffffffffffffffffffffffffffffffffffffff16815260200190815260200160002060006002815260200190815260200160002060009054906101000a900460ff166107d9576040517f08c379a00000000000000000000000000000000000000000000000000000000081526004016107d090612bae565b60405180910390fd5b6000600360009054906101000a900473ffffffffffffffffffffffffffffffffffffffff1673ffffffffffffffffffffffffffffffffffffffff166370a08231336040518263ffffffff1660e01b81526004016108369190612a75565b60206040518083038186803b15801561084e57600080fd5b505afa158015610862573d6000803e3d6000fd5b505050506040513d601f19601f82011682018060405250610886919081019061266f565b146108c6576040517f08c379a00000000000000000000000000000000000000000000000000000000081526004016108bd90612b6e565b60405180910390fd5b600460003373ffffffffffffffffffffffffffffffffffffffff1673ffffffffffffffffffffffffffffffffffffffff16815260200190815260200160002060006003815260200190815260200160002060009054906101000a900460ff16610a23576001600460003373ffffffffffffffffffffffffffffffffffffffff1673ffffffffffffffffffffffffffffffffffffffff16815260200190815260200160002060006003815260200190815260200160002060006101000a81548160ff0219169083151502179055506000809054906101000a900473ffffffffffffffffffffffffffffffffffffffff1673ffffffffffffffffffffffffffffffffffffffff1663158a49883360026040518363ffffffff1660e01b81526004016109f0929190612a90565b600060405180830381600087803b158015610a0a57600080fd5b505af1158015610a1e573d6000803e3d6000fd5b505050505b565b60046020528160005260406000206020528060005260406000206000915091509054906101000a900460ff1681565b6000600360009054906101000a900473ffffffffffffffffffffffffffffffffffffffff1673ffffffffffffffffffffffffffffffffffffffff166370a08231600560003373ffffffffffffffffffffffffffffffffffffffff1673ffffffffffffffffffffffffffffffffffffffff16815260200190815260200160002060009054906101000a900473ffffffffffffffffffffffffffffffffffffffff166040518263ffffffff1660e01b8152600401610b109190612a5a565b60206040518083038186803b158015610b2857600080fd5b505afa158015610b3c573d6000803e3d6000fd5b505050506040513d601f19601f82011682018060405250610b60919081019061266f565b9050600560003373ffffffffffffffffffffffffffffffffffffffff1673ffffffffffffffffffffffffffffffffffffffff16815260200190815260200160002060009054906101000a900473ffffffffffffffffffffffffffffffffffffffff1673ffffffffffffffffffffffffffffffffffffffff16631a231a716040518163ffffffff1660e01b8152600401600060405180830381600087803b158015610c0957600080fd5b505af1158015610c1d573d6000803e3d6000fd5b505050506000600360009054906101000a900473ffffffffffffffffffffffffffffffffffffffff1673ffffffffffffffffffffffffffffffffffffffff166370a08231600560003373ffffffffffffffffffffffffffffffffffffffff1673ffffffffffffffffffffffffffffffffffffffff16815260200190815260200160002060009054906101000a900473ffffffffffffffffffffffffffffffffffffffff166040518263ffffffff1660e01b8152600401610cdd9190612a5a565b60206040518083038186803b158015610cf557600080fd5b505afa158015610d09573d6000803e3d6000fd5b505050506040513d601f19601f82011682018060405250610d2d919081019061266f565b9050808210610d71576040517f08c379a0000000000000000000000000000000000000000000000000000000008152600401610d6890612b8e565b60405180910390fd5b600460003373ffffffffffffffffffffffffffffffffffffffff1673ffffffffffffffffffffffffffffffffffffffff16815260200190815260200160002060006006815260200190815260200160002060009054906101000a900460ff16610ece576001600460003373ffffffffffffffffffffffffffffffffffffffff1673ffffffffffffffffffffffffffffffffffffffff16815260200190815260200160002060006006815260200190815260200160002060006101000a81548160ff0219169083151502179055506000809054906101000a900473ffffffffffffffffffffffffffffffffffffffff1673ffffffffffffffffffffffffffffffffffffffff1663158a49883360026040518363ffffffff1660e01b8152600401610e9b929190612a90565b600060405180830381600087803b158015610eb557600080fd5b505af1158015610ec9573d6000803e3d6000fd5b505050505b5050565b6000600160009054906101000a900473ffffffffffffffffffffffffffffffffffffffff1673ffffffffffffffffffffffffffffffffffffffff166370a08231336040518263ffffffff1660e01b8152600401610f2f9190612a75565b60206040518083038186803b158015610f4757600080fd5b505afa158015610f5b573d6000803e3d6000fd5b505050506040513d601f19601f82011682018060405250610f7f919081019061266f565b11610fbf576040517f08c379a0000000000000000000000000000000000000000000000000000000008152600401610fb690612b6e565b60405180910390fd5b600460003373ffffffffffffffffffffffffffffffffffffffff1673ffffffffffffffffffffffffffffffffffffffff16815260200190815260200160002060006001815260200190815260200160002060009054906101000a900460ff1661111c576001600460003373ffffffffffffffffffffffffffffffffffffffff1673ffffffffffffffffffffffffffffffffffffffff16815260200190815260200160002060006001815260200190815260200160002060006101000a81548160ff0219169083151502179055506000809054906101000a900473ffffffffffffffffffffffffffffffffffffffff1673ffffffffffffffffffffffffffffffffffffffff1663158a49883360026040518363ffffffff1660e01b81526004016110e9929190612a90565b600060405180830381600087803b15801561110357600080fd5b505af1158015611117573d6000803e3d6000fd5b505050505b565b600560003373ffffffffffffffffffffffffffffffffffffffff1673ffffffffffffffffffffffffffffffffffffffff16815260200190815260200160002060009054906101000a900473ffffffffffffffffffffffffffffffffffffffff1673ffffffffffffffffffffffffffffffffffffffff1663d871f5946040518163ffffffff1660e01b8152600401600060405180830381600087803b1580156111c557600080fd5b505af11580156111d9573d6000803e3d6000fd5b505050506000600260009054906101000a900473ffffffffffffffffffffffffffffffffffffffff1673ffffffffffffffffffffffffffffffffffffffff166370a08231600560003373ffffffffffffffffffffffffffffffffffffffff1673ffffffffffffffffffffffffffffffffffffffff16815260200190815260200160002060009054906101000a900473ffffffffffffffffffffffffffffffffffffffff166040518263ffffffff1660e01b81526004016112999190612a5a565b60206040518083038186803b1580156112b157600080fd5b505afa1580156112c5573d6000803e3d6000fd5b505050506040513d601f19601f820116820180604052506112e9919081019061266f565b9050600064e8d4a510009050808211611337576040517f08c379a000000000000000000000000000000000000000000000000000000000815260040161132e90612b4e565b60405180910390fd5b600460003373ffffffffffffffffffffffffffffffffffffffff1673ffffffffffffffffffffffffffffffffffffffff16815260200190815260200160002060006009815260200190815260200160002060009054906101000a900460ff16611494576001600460003373ffffffffffffffffffffffffffffffffffffffff1673ffffffffffffffffffffffffffffffffffffffff16815260200190815260200160002060006009815260200190815260200160002060006101000a81548160ff0219169083151502179055506000809054906101000a900473ffffffffffffffffffffffffffffffffffffffff1673ffffffffffffffffffffffffffffffffffffffff1663158a49883360046040518363ffffffff1660e01b8152600401611461929190612ab9565b600060405180830381600087803b15801561147b57600080fd5b505af115801561148f573d6000803e3d6000fd5b505050505b5050565b6000600360009054906101000a900473ffffffffffffffffffffffffffffffffffffffff1673ffffffffffffffffffffffffffffffffffffffff166370a08231600560003373ffffffffffffffffffffffffffffffffffffffff1673ffffffffffffffffffffffffffffffffffffffff16815260200190815260200160002060009054906101000a900473ffffffffffffffffffffffffffffffffffffffff166040518263ffffffff1660e01b81526004016115549190612a5a565b60206040518083038186803b15801561156c57600080fd5b505afa158015611580573d6000803e3d6000fd5b505050506040513d601f19601f820116820180604052506115a4919081019061266f565b9050600560003373ffffffffffffffffffffffffffffffffffffffff1673ffffffffffffffffffffffffffffffffffffffff16815260200190815260200160002060009054906101000a900473ffffffffffffffffffffffffffffffffffffffff1673ffffffffffffffffffffffffffffffffffffffff16634b5bd34f6040518163ffffffff1660e01b8152600401600060405180830381600087803b15801561164d57600080fd5b505af1158015611661573d6000803e3d6000fd5b505050506000600360009054906101000a900473ffffffffffffffffffffffffffffffffffffffff1673ffffffffffffffffffffffffffffffffffffffff166370a08231600560003373ffffffffffffffffffffffffffffffffffffffff1673ffffffffffffffffffffffffffffffffffffffff16815260200190815260200160002060009054906101000a900473ffffffffffffffffffffffffffffffffffffffff166040518263ffffffff1660e01b81526004016117219190612a5a565b60206040518083038186803b15801561173957600080fd5b505afa15801561174d573d6000803e3d6000fd5b505050506040513d601f19601f82011682018060405250611771919081019061266f565b90508082116117b5576040517f08c379a00000000000000000000000000000000000000000000000000000000081526004016117ac90612c0e565b60405180910390fd5b600460003373ffffffffffffffffffffffffffffffffffffffff1673ffffffffffffffffffffffffffffffffffffffff16815260200190815260200160002060006007815260200190815260200160002060009054906101000a900460ff16611912576001600460003373ffffffffffffffffffffffffffffffffffffffff1673ffffffffffffffffffffffffffffffffffffffff16815260200190815260200160002060006007815260200190815260200160002060006101000a81548160ff0219169083151502179055506000809054906101000a900473ffffffffffffffffffffffffffffffffffffffff1673ffffffffffffffffffffffffffffffffffffffff1663158a49883360026040518363ffffffff1660e01b81526004016118df929190612a90565b600060405180830381600087803b1580156118f957600080fd5b505af115801561190d573d6000803e3d6000fd5b505050505b5050565b600360009054906101000a900473ffffffffffffffffffffffffffffffffffffffff1681565b600260009054906101000a900473ffffffffffffffffffffffffffffffffffffffff1681565b600460003373ffffffffffffffffffffffffffffffffffffffff1673ffffffffffffffffffffffffffffffffffffffff16815260200190815260200160002060006001815260200190815260200160002060009054906101000a900460ff16611a00576040517f08c379a00000000000000000000000000000000000000000000000000000000081526004016119f790612c4e565b60405180910390fd5b6000600160009054906101000a900473ffffffffffffffffffffffffffffffffffffffff1673ffffffffffffffffffffffffffffffffffffffff166370a08231336040518263ffffffff1660e01b8152600401611a5d9190612a75565b60206040518083038186803b158015611a7557600080fd5b505afa158015611a89573d6000803e3d6000fd5b505050506040513d601f19601f82011682018060405250611aad919081019061266f565b14611aed576040517f08c379a0000000000000000000000000000000000000000000000000000000008152600401611ae490612b6e565b60405180910390fd5b600460003373ffffffffffffffffffffffffffffffffffffffff1673ffffffffffffffffffffffffffffffffffffffff16815260200190815260200160002060006004815260200190815260200160002060009054906101000a900460ff16611c4a576001600460003373ffffffffffffffffffffffffffffffffffffffff1673ffffffffffffffffffffffffffffffffffffffff16815260200190815260200160002060006004815260200190815260200160002060006101000a81548160ff0219169083151502179055506000809054906101000a900473ffffffffffffffffffffffffffffffffffffffff1673ffffffffffffffffffffffffffffffffffffffff1663158a49883360026040518363ffffffff1660e01b8152600401611c17929190612a90565b600060405180830381600087803b158015611c3157600080fd5b505af1158015611c45573d6000803e3d6000fd5b505050505b565b6000600160009054906101000a900473ffffffffffffffffffffffffffffffffffffffff1673ffffffffffffffffffffffffffffffffffffffff166370a08231600560003373ffffffffffffffffffffffffffffffffffffffff1673ffffffffffffffffffffffffffffffffffffffff16815260200190815260200160002060009054906101000a900473ffffffffffffffffffffffffffffffffffffffff166040518263ffffffff1660e01b8152600401611d089190612a5a565b60206040518083038186803b158015611d2057600080fd5b505afa158015611d34573d6000803e3d6000fd5b505050506040513d601f19601f82011682018060405250611d58919081019061266f565b9050600560003373ffffffffffffffffffffffffffffffffffffffff1673ffffffffffffffffffffffffffffffffffffffff16815260200190815260200160002060009054906101000a900473ffffffffffffffffffffffffffffffffffffffff1673ffffffffffffffffffffffffffffffffffffffff1663db50609f6040518163ffffffff1660e01b8152600401600060405180830381600087803b158015611e0157600080fd5b505af1158015611e15573d6000803e3d6000fd5b505050506000600160009054906101000a900473ffffffffffffffffffffffffffffffffffffffff1673ffffffffffffffffffffffffffffffffffffffff166370a08231600560003373ffffffffffffffffffffffffffffffffffffffff1673ffffffffffffffffffffffffffffffffffffffff16815260200190815260200160002060009054906101000a900473ffffffffffffffffffffffffffffffffffffffff166040518263ffffffff1660e01b8152600401611ed59190612a5a565b60206040518083038186803b158015611eed57600080fd5b505afa158015611f01573d6000803e3d6000fd5b505050506040513d601f19601f82011682018060405250611f25919081019061266f565b9050808211611f69576040517f08c379a0000000000000000000000000000000000000000000000000000000008152600401611f6090612bee565b60405180910390fd5b600460003373ffffffffffffffffffffffffffffffffffffffff1673ffffffffffffffffffffffffffffffffffffffff16815260200190815260200160002060006008815260200190815260200160002060009054906101000a900460ff166120c6576001600460003373ffffffffffffffffffffffffffffffffffffffff1673ffffffffffffffffffffffffffffffffffffffff16815260200190815260200160002060006008815260200190815260200160002060006101000a81548160ff0219169083151502179055506000809054906101000a900473ffffffffffffffffffffffffffffffffffffffff1673ffffffffffffffffffffffffffffffffffffffff1663158a49883360026040518363ffffffff1660e01b8152600401612093929190612a90565b600060405180830381600087803b1580156120ad57600080fd5b505af11580156120c1573d6000803e3d6000fd5b505050505b5050565b6000809054906101000a900473ffffffffffffffffffffffffffffffffffffffff1681565b6000600160009054906101000a900473ffffffffffffffffffffffffffffffffffffffff1673ffffffffffffffffffffffffffffffffffffffff166370a08231600560003373ffffffffffffffffffffffffffffffffffffffff1673ffffffffffffffffffffffffffffffffffffffff16815260200190815260200160002060009054906101000a900473ffffffffffffffffffffffffffffffffffffffff166040518263ffffffff1660e01b81526004016121ab9190612a5a565b60206040518083038186803b1580156121c357600080fd5b505afa1580156121d7573d6000803e3d6000fd5b505050506040513d601f19601f820116820180604052506121fb919081019061266f565b9050600560003373ffffffffffffffffffffffffffffffffffffffff1673ffffffffffffffffffffffffffffffffffffffff16815260200190815260200160002060009054906101000a900473ffffffffffffffffffffffffffffffffffffffff1673ffffffffffffffffffffffffffffffffffffffff1663f6b96bae6040518163ffffffff1660e01b8152600401600060405180830381600087803b1580156122a457600080fd5b505af11580156122b8573d6000803e3d6000fd5b505050506000600160009054906101000a900473ffffffffffffffffffffffffffffffffffffffff1673ffffffffffffffffffffffffffffffffffffffff166370a08231600560003373ffffffffffffffffffffffffffffffffffffffff1673ffffffffffffffffffffffffffffffffffffffff16815260200190815260200160002060009054906101000a900473ffffffffffffffffffffffffffffffffffffffff166040518263ffffffff1660e01b81526004016123789190612a5a565b60206040518083038186803b15801561239057600080fd5b505afa1580156123a4573d6000803e3d6000fd5b505050506040513d601f19601f820116820180604052506123c8919081019061266f565b905080821061240c576040517f08c379a000000000000000000000000000000000000000000000000000000000815260040161240390612bce565b60405180910390fd5b600460003373ffffffffffffffffffffffffffffffffffffffff1673ffffffffffffffffffffffffffffffffffffffff16815260200190815260200160002060006005815260200190815260200160002060009054906101000a900460ff16612569576001600460003373ffffffffffffffffffffffffffffffffffffffff1673ffffffffffffffffffffffffffffffffffffffff16815260200190815260200160002060006005815260200190815260200160002060006101000a81548160ff0219169083151502179055506000809054906101000a900473ffffffffffffffffffffffffffffffffffffffff1673ffffffffffffffffffffffffffffffffffffffff1663158a49883360026040518363ffffffff1660e01b8152600401612536929190612a90565b600060405180830381600087803b15801561255057600080fd5b505af1158015612564573d6000803e3d6000fd5b505050505b5050565b60066020528060005260406000206000915054906101000a900460ff1681565b60008135905061259c81612d9f565b92915050565b6000813590506125b181612db6565b92915050565b6000813590506125c681612dcd565b92915050565b6000815190506125db81612dcd565b92915050565b6000602082840312156125f357600080fd5b60006126018482850161258d565b91505092915050565b6000806040838503121561261d57600080fd5b600061262b8582860161258d565b925050602061263c858286016125b7565b9150509250929050565b60006020828403121561265857600080fd5b6000612666848285016125a2565b91505092915050565b60006020828403121561268157600080fd5b600061268f848285016125cc565b91505092915050565b6126a181612cd9565b82525050565b6126b081612c7f565b82525050565b6126bf81612c91565b82525050565b6126ce81612ceb565b82525050565b6126dd81612d0f565b82525050565b6126ec81612d33565b82525050565b6126fb81612d57565b82525050565b61270a81612d69565b82525050565b600061271d602683612c6e565b91507f596f757220636f6e747261637420646f6573206e6f7420686f6c6420314d206460008301527f6f6c6c61727300000000000000000000000000000000000000000000000000006020830152604082019050919050565b6000612783602483612c6e565b91507f53656e64657220686173206e6f74206465706f73697465642044414920696e2060008301527f41415645000000000000000000000000000000000000000000000000000000006020830152604082019050919050565b60006127e9602383612c6e565b91507f596f757220636f6e747261637420646964206e6f7420626f72726f7720746f6b60008301527f656e7300000000000000000000000000000000000000000000000000000000006020830152604082019050919050565b600061284f601d83612c6e565b91507f596f752073686f756c64206861766520636f6d706c65746564206578320000006000830152602082019050919050565b600061288f602483612c6e565b91507f596f757220636f6e747261637420646964206e6f74206465706f73697420746f60008301527f6b656e73000000000000000000000000000000000000000000000000000000006020830152604082019050919050565b60006128f5602983612c6e565b91507f596f757220636f6e747261637420646964206e6f74207769746864726177206960008301527f747320746f6b656e7300000000000000000000000000000000000000000000006020830152604082019050919050565b600061295b602683612c6e565b91507f596f757220636f6e747261637420646964206e6f74207265706179206974732060008301527f746f6b656e7300000000000000000000000000000000000000000000000000006020830152604082019050919050565b60006129c1602483612c6e565b91507f53656e64657220686173206e6f7420626f72726f776564205553444320696e2060008301527f41415645000000000000000000000000000000000000000000000000000000006020830152604082019050919050565b6000612a27601d83612c6e565b91507f596f752073686f756c64206861766520636f6d706c65746564206578310000006000830152602082019050919050565b6000602082019050612a6f60008301846126a7565b92915050565b6000602082019050612a8a6000830184612698565b92915050565b6000604082019050612aa56000830185612698565b612ab260208301846126f2565b9392505050565b6000604082019050612ace6000830185612698565b612adb6020830184612701565b9392505050565b6000602082019050612af760008301846126b6565b92915050565b6000602082019050612b1260008301846126c5565b92915050565b6000602082019050612b2d60008301846126d4565b92915050565b6000602082019050612b4860008301846126e3565b92915050565b60006020820190508181036000830152612b6781612710565b9050919050565b60006020820190508181036000830152612b8781612776565b9050919050565b60006020820190508181036000830152612ba7816127dc565b9050919050565b60006020820190508181036000830152612bc781612842565b9050919050565b60006020820190508181036000830152612be781612882565b9050919050565b60006020820190508181036000830152612c07816128e8565b9050919050565b60006020820190508181036000830152612c278161294e565b9050919050565b60006020820190508181036000830152612c47816129b4565b9050919050565b60006020820190508181036000830152612c6781612a1a565b9050919050565b600082825260208201905092915050565b6000612c8a82612caf565b9050919050565b60008115159050919050565b6000612ca882612c7f565b9050919050565b600073ffffffffffffffffffffffffffffffffffffffff82169050919050565b6000819050919050565b6000612ce482612d7b565b9050919050565b6000612cf682612cfd565b9050919050565b6000612d0882612caf565b9050919050565b6000612d1a82612d21565b9050919050565b6000612d2c82612caf565b9050919050565b6000612d3e82612d45565b9050919050565b6000612d5082612caf565b9050919050565b6000612d6282612ccf565b9050919050565b6000612d7482612ccf565b9050919050565b6000612d8682612d8d565b9050919050565b6000612d9882612caf565b9050919050565b612da881612c7f565b8114612db357600080fd5b50565b612dbf81612c9d565b8114612dca57600080fd5b50565b612dd681612ccf565b8114612de157600080fd5b5056fea2646970667358221220959442554451d4c8603c37e5560ca4373dc6d3d4824d2d54fc790d896c8e4ed364736f6c63430006000033",
  "source": "pragma solidity ^0.6.0;\r\npragma experimental ABIEncoderV2;\r\n\r\nimport \"./ERC20TD.sol\";\r\nimport \"./IExerciceSolution.sol\";\r\nimport \"@openzeppelin/contracts/token/ERC20/IERC20.sol\";\r\n\r\n// import \"./utils/IUniswapV2Factory.sol\";\r\n// import \"./utils/IUniswapV2Pair.sol\";\r\n\r\ncontract Evaluator \r\n{\r\n\r\n\tERC20TD public TDAAVE;\r\n\tIERC20 public aDAI;\r\n\tIERC20 public USDC;\r\n\tIERC20 public variableDebtUSDC;\r\n\r\n \tmapping(address => mapping(uint256 => bool)) public exerciceProgression;\r\n \tmapping(address => IExerciceSolution) public studentExercice;\r\n \tmapping(address => bool) public hasBeenPaired;\r\n\r\n \tevent constructedCorrectly(address erc20Address, address adaiAddress, address UsdcAddress, address variableDebtUSDCAddress);\r\n\tconstructor(ERC20TD _TDAAVE, IERC20 _aDAI, IERC20 _USDC, IERC20 _variableDebtUSDC) \r\n\tpublic \r\n\t{\r\n\t\tTDAAVE = _TDAAVE;\r\n\t\taDAI = _aDAI;\r\n\t\tUSDC = _USDC;\r\n\t\tvariableDebtUSDC = _variableDebtUSDC;\r\n\t\temit constructedCorrectly(address(TDAAVE), address(aDAI), address(USDC), address(variableDebtUSDC));\r\n\r\n\t}\r\n\r\n\tfallback () external payable \r\n\t{}\r\n\r\n\treceive () external payable \r\n\t{}\r\n\r\n\tfunction ex1_showIDepositedTokens()\r\n\tpublic\r\n\t{\r\n\r\n\t\t// Sender should have deposited testnet aDAI\r\n\t\trequire(aDAI.balanceOf(msg.sender) > 0, \"Sender has not deposited DAI in AAVE\");\r\n\r\n\t\t// Distributing points\r\n\t\tif (!exerciceProgression[msg.sender][1])\r\n\t\t{\r\n\t\t\texerciceProgression[msg.sender][1] = true;\r\n\t\t\tTDAAVE.distributeTokens(msg.sender, 2);\r\n\t\t}\r\n\r\n\t}\r\n\r\n\tfunction ex2_showIBorrowedTokens()\r\n\tpublic\r\n\t{\r\n\r\n\t\t// Sender should have borrowed USDC on AAVE \r\n\t\trequire(variableDebtUSDC.balanceOf(msg.sender) > 0, \"Sender has not borrowed USDC in AAVE\");\r\n\r\n\t\t// Distributing points\r\n\t\tif (!exerciceProgression[msg.sender][2])\r\n\t\t{\r\n\t\t\texerciceProgression[msg.sender][2] = true;\r\n\t\t\tTDAAVE.distributeTokens(msg.sender, 2);\r\n\t\t}\r\n\r\n\t}\r\n\r\n\tfunction ex3_showIRepaidTokens()\r\n\tpublic\r\n\t{\r\n\r\n\t\trequire(exerciceProgression[msg.sender][2], \"You should have completed ex2\");\r\n\t\t// // Sender should repaid his testnet USDC\r\n\t\trequire(variableDebtUSDC.balanceOf(msg.sender) == 0, \"Sender has not deposited DAI in AAVE\");\r\n\r\n\t\t// Distributing points\r\n\t\tif (!exerciceProgression[msg.sender][3])\r\n\t\t{\r\n\t\t\texerciceProgression[msg.sender][3] = true;\r\n\t\t\tTDAAVE.distributeTokens(msg.sender, 2);\r\n\t\t}\r\n\r\n\t}\r\n\r\n\tfunction ex4_showIWithdrewTokens()\r\n\tpublic\r\n\t{\r\n\r\n\t\trequire(exerciceProgression[msg.sender][1], \"You should have completed ex1\");\r\n\r\n\t\t// // Sender should have no more testnet aDAI\r\n\t\trequire(aDAI.balanceOf(msg.sender) == 0, \"Sender has not deposited DAI in AAVE\");\r\n\r\n\t\t// Distributing points\r\n\t\tif (!exerciceProgression[msg.sender][4])\r\n\t\t{\r\n\t\t\texerciceProgression[msg.sender][4] = true;\r\n\t\t\tTDAAVE.distributeTokens(msg.sender, 2);\r\n\t\t}\r\n\r\n\t}\r\n\r\n\tfunction ex5_showContractCanDepositTokens()\r\n\tpublic\r\n\t{\r\n\t\t// Reading initial aDai balance\r\n\t\tuint256 initialBalance = aDAI.balanceOf(address(studentExercice[msg.sender]));\r\n\r\n\t\t// Trigger token deposit function\r\n\t\tstudentExercice[msg.sender].depositSomeTokens();\r\n\r\n\t\t// Read end balance\r\n\t\tuint256 endBalance = aDAI.balanceOf(address(studentExercice[msg.sender]));\r\n\r\n\t\t// Verify that contract did borrow\r\n\t\trequire(initialBalance < endBalance, \"Your contract did not deposit tokens\");\r\n\r\n\t\t// Distributing points\r\n\t\tif (!exerciceProgression[msg.sender][5])\r\n\t\t{\r\n\t\t\texerciceProgression[msg.sender][5] = true;\r\n\t\t\tTDAAVE.distributeTokens(msg.sender, 2);\r\n\t\t}\r\n\t}\r\n\r\n\tfunction ex6_showContractCanBorrowTokens()\r\n\tpublic\r\n\t{\r\n\t\t// Reading initial variableDebtUSDC balance\r\n\t\tuint256 initialBalance = variableDebtUSDC.balanceOf(address(studentExercice[msg.sender]));\r\n\r\n\t\t// Trigger token deposit function\r\n\t\tstudentExercice[msg.sender].borrowSomeTokens();\r\n\r\n\t\t// Read end balance\r\n\t\tuint256 endBalance = variableDebtUSDC.balanceOf(address(studentExercice[msg.sender]));\r\n\r\n\t\t// Verify that contract did borrow\r\n\t\trequire(initialBalance < endBalance, \"Your contract did not borrow tokens\");\r\n\r\n\t\t// Distributing points\r\n\t\tif (!exerciceProgression[msg.sender][6])\r\n\t\t{\r\n\t\t\texerciceProgression[msg.sender][6] = true;\r\n\t\t\tTDAAVE.distributeTokens(msg.sender, 2);\r\n\t\t}\r\n\t}\r\n\r\n\tfunction ex7_showContractCanRepayTokens()\r\n\tpublic\r\n\t{\r\n\t\t// Reading initial variableDebtUSDC balance\r\n\t\tuint256 initialBalance = variableDebtUSDC.balanceOf(address(studentExercice[msg.sender]));\r\n\r\n\t\t// Trigger token deposit function\r\n\t\tstudentExercice[msg.sender].repaySomeTokens();\r\n\r\n\t\t// Read end balance\r\n\t\tuint256 endBalance = variableDebtUSDC.balanceOf(address(studentExercice[msg.sender]));\r\n\r\n\t\t// Verify that contract did borrow\r\n\t\trequire(initialBalance > endBalance, \"Your contract did not repay its tokens\");\r\n\r\n\t\t// Distributing points\r\n\t\tif (!exerciceProgression[msg.sender][7])\r\n\t\t{\r\n\t\t\texerciceProgression[msg.sender][7] = true;\r\n\t\t\tTDAAVE.distributeTokens(msg.sender, 2);\r\n\t\t}\r\n\t}\r\n\r\n\tfunction ex8_showContractCanWithdrawTokens()\r\n\tpublic\r\n\t{\r\n\t\t// Reading initial aDai balance\r\n\t\tuint256 initialBalance = aDAI.balanceOf(address(studentExercice[msg.sender]));\r\n\r\n\t\t// Trigger token deposit function\r\n\t\tstudentExercice[msg.sender].withdrawSomeTokens();\r\n\r\n\t\t// Read end balance\r\n\t\tuint256 endBalance = aDAI.balanceOf(address(studentExercice[msg.sender]));\r\n\r\n\t\t// Verify that contract did borrow\r\n\t\trequire(initialBalance > endBalance, \"Your contract did not withdraw its tokens\");\r\n\r\n\t\t// Distributing points\r\n\t\tif (!exerciceProgression[msg.sender][8])\r\n\t\t{\r\n\t\t\texerciceProgression[msg.sender][8] = true;\r\n\t\t\tTDAAVE.distributeTokens(msg.sender, 2);\r\n\t\t}\r\n\t}\r\n\r\n\tfunction ex9_performFlashLoan()\r\n\tpublic\r\n\t{\t\r\n\t\t// Check https://docs.aave.com/developers/guides/flash-loans\r\n\r\n\t\t// Trigger flash loan launch function\r\n\t\tstudentExercice[msg.sender].doAFlashLoan();\r\n\r\n\t\t// Read end balance\r\n\t\tuint256 endBalance = USDC.balanceOf(address(studentExercice[msg.sender]));\r\n\r\n\t\t// Your contract has to borrow 1M USDC. The USDC contract has 6 decimals\r\n\t\tuint256 amountToBorrow = 1000000 * 1000000;\r\n\t\t// Verify that contract did borrow\r\n\t\trequire(endBalance > amountToBorrow, \"Your contract does not hold 1M dollars\");\r\n\r\n\t\t// Distributing points\r\n\t\tif (!exerciceProgression[msg.sender][9])\r\n\t\t{\r\n\t\t\texerciceProgression[msg.sender][9] = true;\r\n\t\t\tTDAAVE.distributeTokens(msg.sender, 4);\r\n\t\t}\r\n\t}\r\n\r\n\r\n\tmodifier onlyTeachers() \r\n\t{\r\n\r\n\t    require(TDAAVE.teachers(msg.sender));\r\n\t    _;\r\n\t}\r\n\r\n\tfunction submitExercice(IExerciceSolution studentExercice_)\r\n\tpublic\r\n\t{\r\n\t\t// Checking this contract was not used by another group before\r\n\t\trequire(!hasBeenPaired[address(studentExercice_)]);\r\n\r\n\t\t// Assigning passed ERC20 as student ERC20\r\n\t\tstudentExercice[msg.sender] = studentExercice_;\r\n\t\thasBeenPaired[address(studentExercice_)] = true;\r\n\t\t\t\r\n\t}\r\n\r\n}\r\n",
  "sourcePath": "C:\\Users\\alexa\\Documents\\ESILV\\A4\\DeFi\\lending-101\\contracts\\Evaluator.sol",
  "compiler": {
    "name": "solc",
    "version": "0.6.0+commit.26b70077.Emscripten.clang"
  },
  "schemaVersion": "3.4.12",
  "updatedAt": "2023-02-19T18:33:23.403Z",
  "networkType": "ethereum",
  "devdoc": {
    "methods": {}
  },
  "userdoc": {
    "methods": {}
  }
}