{
  "contractName": "ExerciceSolution",
  "abi": [
    {
      "inputs": [
        {
          "internalType": "address",
          "name": "poolAddress",
          "type": "address"
        }
      ],
      "stateMutability": "nonpayable",
      "type": "constructor"
    },
    {
      "inputs": [],
      "name": "depositSomeTokens",
      "outputs": [],
      "stateMutability": "nonpayable",
      "type": "function"
    },
    {
      "inputs": [],
      "name": "withdrawSomeTokens",
      "outputs": [],
      "stateMutability": "nonpayable",
      "type": "function"
    },
    {
      "inputs": [],
      "name": "borrowSomeTokens",
      "outputs": [],
      "stateMutability": "nonpayable",
      "type": "function"
    },
    {
      "inputs": [],
      "name": "repaySomeTokens",
      "outputs": [],
      "stateMutability": "nonpayable",
      "type": "function"
    },
    {
      "inputs": [],
      "name": "doAFlashLoan",
      "outputs": [],
      "stateMutability": "nonpayable",
      "type": "function"
    },
    {
      "inputs": [],
      "name": "repayFlashLoan",
      "outputs": [],
      "stateMutability": "nonpayable",
      "type": "function"
    },
    {
      "inputs": [
        {
          "internalType": "uint256",
          "name": "amount",
          "type": "uint256"
        }
      ],
      "name": "getFundsBack",
      "outputs": [],
      "stateMutability": "nonpayable",
      "type": "function"
    },
    {
      "inputs": [
        {
          "internalType": "address",
          "name": "asset",
          "type": "address"
        },
        {
          "internalType": "uint256",
          "name": "amount",
          "type": "uint256"
        },
        {
          "internalType": "uint256",
          "name": "premium",
          "type": "uint256"
        },
        {
          "internalType": "address",
          "name": "initiator",
          "type": "address"
        },
        {
          "internalType": "bytes",
          "name": "params",
          "type": "bytes"
        }
      ],
      "name": "executeOperation",
      "outputs": [
        {
          "internalType": "bool",
          "name": "",
          "type": "bool"
        }
      ],
      "stateMutability": "nonpayable",
      "type": "function"
    }
  ],
  "bytecode": "0x608060405234801561001057600080fd5b50604051610caf380380610caf8339818101604052602081101561003357600080fd5b8101908080519060200190929190505050806000806101000a81548173ffffffffffffffffffffffffffffffffffffffff021916908373ffffffffffffffffffffffffffffffffffffffff16021790555050610c1b806100946000396000f3fe608060405234801561001057600080fd5b50600436106100885760003560e01c8063d871f5941161005b578063d871f594146101b4578063db50609f146101be578063f6b96bae146101c8578063fc6669b6146101d257610088565b80631a231a711461008d5780631b11d0ff146100975780634b5bd34f1461017c578063ad9328b714610186575b600080fd5b6100956101dc565b005b610162600480360360a08110156100ad57600080fd5b81019080803573ffffffffffffffffffffffffffffffffffffffff1690602001909291908035906020019092919080359060200190929190803573ffffffffffffffffffffffffffffffffffffffff1690602001909291908035906020019064010000000081111561011e57600080fd5b82018360208201111561013057600080fd5b8035906020019184600183028401116401000000008311171561015257600080fd5b909192939192939050505061030b565b604051808215151515815260200191505060405180910390f35b610184610426565b005b6101b26004803603602081101561019c57600080fd5b8101908080359060200190929190505050610655565b005b6101bc61074f565b005b6101c661088b565b005b6101d06109cd565b005b6101da610be3565b005b6000620f4240905060007365afadd39029741b3b8f0756952c74678c9cec9390506000809054906101000a900473ffffffffffffffffffffffffffffffffffffffff1673ffffffffffffffffffffffffffffffffffffffff1663a415bcad828460026000306040518663ffffffff1660e01b8152600401808673ffffffffffffffffffffffffffffffffffffffff1673ffffffffffffffffffffffffffffffffffffffff1681526020018581526020018481526020018361ffff1681526020018273ffffffffffffffffffffffffffffffffffffffff1673ffffffffffffffffffffffffffffffffffffffff16815260200195505050505050600060405180830381600087803b1580156102ef57600080fd5b505af1158015610303573d6000803e3d6000fd5b505050505050565b600080858701905060007365afadd39029741b3b8f0756952c74678c9cec93905060008190508073ffffffffffffffffffffffffffffffffffffffff1663095ea7b36000809054906101000a900473ffffffffffffffffffffffffffffffffffffffff16856040518363ffffffff1660e01b8152600401808373ffffffffffffffffffffffffffffffffffffffff1673ffffffffffffffffffffffffffffffffffffffff16815260200182815260200192505050602060405180830381600087803b1580156103d957600080fd5b505af11580156103ed573d6000803e3d6000fd5b505050506040513d602081101561040357600080fd5b810190808051906020019092919050505050600193505050509695505050505050565b6000612710905060007365afadd39029741b3b8f0756952c74678c9cec93905060008190508073ffffffffffffffffffffffffffffffffffffffff1663095ea7b36000809054906101000a900473ffffffffffffffffffffffffffffffffffffffff16856040518363ffffffff1660e01b8152600401808373ffffffffffffffffffffffffffffffffffffffff1673ffffffffffffffffffffffffffffffffffffffff16815260200182815260200192505050602060405180830381600087803b1580156104f357600080fd5b505af1158015610507573d6000803e3d6000fd5b505050506040513d602081101561051d57600080fd5b8101908080519060200190929190505050506000809054906101000a900473ffffffffffffffffffffffffffffffffffffffff1673ffffffffffffffffffffffffffffffffffffffff1663573ade8183856002306040518563ffffffff1660e01b8152600401808573ffffffffffffffffffffffffffffffffffffffff1673ffffffffffffffffffffffffffffffffffffffff1681526020018481526020018381526020018273ffffffffffffffffffffffffffffffffffffffff1673ffffffffffffffffffffffffffffffffffffffff168152602001945050505050602060405180830381600087803b15801561061457600080fd5b505af1158015610628573d6000803e3d6000fd5b505050506040513d602081101561063e57600080fd5b810190808051906020019092919050505050505050565b60007365afadd39029741b3b8f0756952c74678c9cec93905060008190508073ffffffffffffffffffffffffffffffffffffffff1663a9059cbb732b1a884dc7a8f0cc17939928895d9d7cb9146074856040518363ffffffff1660e01b8152600401808373ffffffffffffffffffffffffffffffffffffffff1673ffffffffffffffffffffffffffffffffffffffff16815260200182815260200192505050602060405180830381600087803b15801561070e57600080fd5b505af1158015610722573d6000803e3d6000fd5b505050506040513d602081101561073857600080fd5b810190808051906020019092919050505050505050565b60007365afadd39029741b3b8f0756952c74678c9cec939050600064e8d4a5100090506000809054906101000a900473ffffffffffffffffffffffffffffffffffffffff1673ffffffffffffffffffffffffffffffffffffffff166342b0b77c30848460006040518563ffffffff1660e01b8152600401808573ffffffffffffffffffffffffffffffffffffffff1673ffffffffffffffffffffffffffffffffffffffff1681526020018473ffffffffffffffffffffffffffffffffffffffff1673ffffffffffffffffffffffffffffffffffffffff168152602001838152602001806020018361ffff16815260200182810382526000815260200160200195505050505050600060405180830381600087803b15801561086f57600080fd5b505af1158015610883573d6000803e3d6000fd5b505050505050565b6000678ac7230489e800009050600073ba8dced3512925e52fe67b1b5329187589072a5590506000809054906101000a900473ffffffffffffffffffffffffffffffffffffffff1673ffffffffffffffffffffffffffffffffffffffff166369328dec8284306040518463ffffffff1660e01b8152600401808473ffffffffffffffffffffffffffffffffffffffff1673ffffffffffffffffffffffffffffffffffffffff1681526020018381526020018273ffffffffffffffffffffffffffffffffffffffff1673ffffffffffffffffffffffffffffffffffffffff1681526020019350505050602060405180830381600087803b15801561098d57600080fd5b505af11580156109a1573d6000803e3d6000fd5b505050506040513d60208110156109b757600080fd5b8101908080519060200190929190505050505050565b600068056bc75e2d631000009050600073ba8dced3512925e52fe67b1b5329187589072a55905060008190508073ffffffffffffffffffffffffffffffffffffffff1663095ea7b36000809054906101000a900473ffffffffffffffffffffffffffffffffffffffff16856040518363ffffffff1660e01b8152600401808373ffffffffffffffffffffffffffffffffffffffff1673ffffffffffffffffffffffffffffffffffffffff16815260200182815260200192505050602060405180830381600087803b158015610aa157600080fd5b505af1158015610ab5573d6000803e3d6000fd5b505050506040513d6020811015610acb57600080fd5b8101908080519060200190929190505050506000809054906101000a900473ffffffffffffffffffffffffffffffffffffffff1673ffffffffffffffffffffffffffffffffffffffff1663617ba03783853060006040518563ffffffff1660e01b8152600401808573ffffffffffffffffffffffffffffffffffffffff1673ffffffffffffffffffffffffffffffffffffffff1681526020018481526020018373ffffffffffffffffffffffffffffffffffffffff1673ffffffffffffffffffffffffffffffffffffffff1681526020018261ffff168152602001945050505050600060405180830381600087803b158015610bc657600080fd5b505af1158015610bda573d6000803e3d6000fd5b50505050505050565b56fea2646970667358221220e2ce0969cd7b1543cb54ec55d2915112add1a64be429158d7dd6647e841b47a564736f6c63430006000033",
  "source": "pragma solidity ^0.6.0;\r\nimport \"./IExerciceSolution.sol\";\r\nimport {IPool} from \"@aave/core-v3/contracts/interfaces/IPool.sol\";\r\nimport {IERC20} from \"@openzeppelin/contracts/token/ERC20/IERC20.sol\";\r\nimport {IFlashLoanSimpleReceiver} from \"@aave/core-v3/contracts/flashloan/interfaces/IFlashLoanSimpleReceiver.sol\";\r\n\r\n\r\ncontract ExerciceSolution is IExerciceSolution\r\n{\r\n    IPool private aavePool;\r\n    \r\n    constructor(address poolAddress) public {\r\n        aavePool = IPool(poolAddress);\r\n    }\r\n\r\n\tfunction depositSomeTokens() override external {\r\n        uint256 amount = 100000000000000000000;\r\n        address daiAdress = 0xBa8DCeD3512925e52FE67b1b5329187589072A55;\r\n\r\n        IERC20 token = IERC20(daiAdress);\r\n\r\n        // Approve Dai for AAVE\r\n        token.approve(address(aavePool), amount);\r\n\r\n        // Deposit the asset into the Aave protocol\r\n        aavePool.supply(daiAdress, amount, address(this), 0);\r\n    }\r\n\r\n\tfunction withdrawSomeTokens() override external {\r\n        uint256 amount = 10000000000000000000;\r\n        address USDCAddress = 0xBa8DCeD3512925e52FE67b1b5329187589072A55;\r\n\r\n        // Borrow the asset\r\n        aavePool.withdraw(USDCAddress, amount, address(this));\r\n    }\r\n\r\n\tfunction borrowSomeTokens() override external {\r\n        uint256 amount = 1000000;\r\n        address USDCAddress = 0x65aFADD39029741B3b8f0756952C74678c9cEC93;\r\n\r\n        // Borrow the asset\r\n        aavePool.borrow(USDCAddress, amount, 2, 0, address(this));\r\n    }\r\n\r\n\tfunction repaySomeTokens() override external {\r\n        uint256 amount = 10000;\r\n        address USDCAddress = 0x65aFADD39029741B3b8f0756952C74678c9cEC93;\r\n\r\n        IERC20 token = IERC20(USDCAddress);\r\n\r\n        // Approve USDC for AAVE\r\n        token.approve(address(aavePool), amount);\r\n\r\n        // Borrow the asset\r\n        aavePool.repay(USDCAddress, amount, 2, address(this));\r\n    }\r\n\r\n\tfunction doAFlashLoan() override external {\r\n        address USDCAddress = 0x65aFADD39029741B3b8f0756952C74678c9cEC93;\r\n        uint256 amount = 1000000 * 1000000;\r\n\r\n        aavePool.flashLoanSimple(address(this), USDCAddress, amount, \"\", 0); \r\n    }\r\n\r\n\tfunction repayFlashLoan() override external {\r\n\r\n    }\r\n\r\n    function getFundsBack(uint256 amount)external{\r\n        address USDCAddress = 0x65aFADD39029741B3b8f0756952C74678c9cEC93;\r\n        IERC20 token = IERC20(USDCAddress);\r\n\r\n        token.transfer(0x2B1a884Dc7a8f0cc17939928895D9D7cb9146074, amount);\r\n    }\r\n\r\n    function executeOperation(\r\n        address asset,\r\n        uint256 amount,\r\n        uint256 premium,\r\n        address initiator,\r\n        bytes calldata params\r\n    ) external returns (bool) {\r\n\r\n        //we have borrowed some funds\r\n        uint256 amountOwed = amount + premium;\r\n        address USDCAddress = 0x65aFADD39029741B3b8f0756952C74678c9cEC93;\r\n        IERC20 token = IERC20(USDCAddress);\r\n        token.approve(address(aavePool), amountOwed);\r\n\r\n        return true;\r\n    }\r\n}",
  "sourcePath": "C:\\Users\\alexa\\Documents\\ESILV\\A4\\DeFi\\lending-101\\contracts\\ExerciceSolution.sol",
  "compiler": {
    "name": "solc",
    "version": "0.6.0+commit.26b70077.Emscripten.clang"
  },
  "schemaVersion": "3.4.12",
  "updatedAt": "2023-02-19T18:33:23.420Z",
  "networkType": "ethereum",
  "devdoc": {
    "methods": {}
  },
  "userdoc": {
    "methods": {}
  }
}